:04000000FEEF07F018
:1002000000003050FF0A036E6AEF01F0FF0E026E2D
:10021000F40E016EB1EF01F0FF0E026EF60E016EEC
:10022000B1EF01F0FF0E026EF70E016EB1EF01F0BB
:10023000FF0E026EF90E016EB1EF01F0FF0E026EBD
:10024000FB0E016EB1EF01F0FF0E026EFD0E016EAE
:10025000B1EF01F0FF0E026EFE0E016EB1EF01F084
:10026000026A000E016EB1EF01F0026A020E016E29
:10027000B1EF01F0026A030E016EB1EF01F0026A04
:10028000050E016EB1EF01F0026A070E016EB1EFCB
:1002900001F0026A090E016EB1EF01F0026A0A0E66
:1002A000016EB1EF01F0026A0C0E016EB1EF01F0C8
:1002B000FF0E026E910E016EB1EF01F0FE0E026EA6
:1002C000B30E016EB1EF01F0030E026EE70E016E88
:1002D000B1EF01F00350000AD8B45EEF01F0010A5B
:1002E000D8B453EF01F0030AD8B449EF01F0010A82
:1002F000D8B44EEF01F0070AD8B43FEF01F0020A7C
:10030000D8B444EF01F00E0AD8B435EF01F0040A76
:10031000D8B43AEF01F01C0AD8B42AEF01F0080A69
:10032000D8B430EF01F0380AD8B41EEF01F0100A4B
:10033000D8B424EF01F0700AD8B412EF01F0200A0B
:10034000D8B418EF01F0E00AD8B406EF01F0400A83
:10035000D8B40CEF01F03F0AD8B458EF01F064EFC5
:1003600001F0120017EC06F0EFEC05F01DEC06F0C2
:10037000010E426E900E416E086A030E076EE5ECA8
:1003800004F0276A000E266E20EE35F010EE1AF00B
:100390000B0EDBCFE3FFE806FCE23EEF02F02A049F
:1003A0002B10D8A4D6EF01F0D8EF01F02CEF02F01B
:1003B00008EF02F056EC05F02B6A000E2A6E284A70
:1003C000292A35EF02F0086A000E076E0A6A000E4D
:1003D000096E33EC05F0086A030E076EE5EC04F0D5
:1003E000DFEF01F0106A040E0F6EF8EC03F0026A02
:1003F000050E016E0CEC05F0DCEF01F02B6A010E2E
:100400002A6E284A292A276A010E266E35EF02F045
:100410002850020DF3501A0FD96EDA6ADECF18F0A9
:10042000DDCF19F01950000AD8B419EF02F035EFFA
:1004300002F01850010AD8B4DAEF01F0030AD8B478
:10044000E3EF01F0010AD8B4F2EF01F0070AD8B4E3
:10045000FEEF01F035EF02F0BBEC05F0D4EC02F05A
:1004600035EF02F02B6A010E2A6E26042710D8B44D
:100470003CEF02F03EEF02F032EF02F029BE4AEF0D
:1004800002F0295009E1060E285CD8A04AEF02F0DC
:100490004CEF02F0CFEF01F0FEEF07F00ABE5CEF89
:1004A00002F0C10E095C5D0E0A58D8B05AEF02F096
:1004B0005CEF02F06AEF02F00CBE68EF02F0C10ED2
:1004C0000B5C5D0E0C58D8A068EF02F06AEF02F0EA
:1004D0006FEF02F00A6A000E096ED3EF02F00950C6
:1004E0000B5C0C50800A0F6E0A50800A0F58D8B06F
:1004F0007CEF02F07EEF02F091EF02F0600E092433
:10050000016EF00E0A20026E046A320E036E55EC84
:1005100003F001500D5C096E02500E580A6ED3EFC5
:1005200002F00B50095C0A50800A0F6E0C50800AD2
:100530000F58D8B09EEF02F0A0EF02F0B3EF02F038
:10054000600E0B24016EF00E0C20026E046A320E57
:10055000036E55EC03F001500D5C096E02500E580D
:100560000A6ED3EF02F0046A020E036E09500B24E8
:10057000016E0A500C20026E55EC03F0600E01244F
:10058000106EF00E0220116E10C001F011C002F0CA
:10059000046A320E036E55EC03F001500D5C096ED7
:1005A00002500E580A6E1200B5EC03F004C016F0AB
:1005B00005C017F0910E161806E11728D8A4E3EF2E
:1005C00002F0E5EF02F0EEEF02F02B6A010E2A6E68
:1005D000010E426E900E416E06EF03F0E70E161804
:1005E00007E1030E1718D8A4F8EF02F0FAEF02F0B3
:1005F00002EF03F0426A960E416E176A000E166E05
:1006000006EF03F0010E426E900E416E8DEC05F088
:1006100001C012F002C013F0A4EC05F001C014F008
:1006200002C015F013BE20EF03F0A10E125C0F0EF6
:100630001358D8B01EEF03F020EF03F02EEF03F0B5
:1006400015BE2CEF03F0A10E145C0F0E1558D8A0A8
:100650002CEF03F02EEF03F040EF03F014C009F08D
:1006600015C00AF012C00BF013C00CF041C00DF021
:1006700042C00EF04EEC02F009C041F00AC042F058
:1006800042BE47EF03F045EF03F04AEF03F0426A42
:10069000000E416E41C007F042C008F016C009F0DC
:1006A00017C00AF033EC05F01200066A04BE5DEFD5
:1006B00003F05BEF03F063EF03F0036C041ED8B0AC
:1006C000042A010E066E02BE6AEF03F068EF03F023
:1006D00070EF03F0016C021ED8B0022A010E061A58
:1006E000086A000E076E03500410D8B47AEF03F0C6
:1006F0007CEF03F0A4EF03F0010E056E84EF03F02E
:10070000D89003360436052A04AE89EF03F08BEF48
:1007100003F080EF03F0D890073608360350015CF1
:1007200004500258D8A097EF03F099EF03F09EEF22
:1007300003F00350015E0450025A0780D89004323F
:100740000332052E8BEF03F00650D8B4AAEF03F066
:10075000ACEF03F0B0EF03F0076C081ED8B0082A26
:1007600007C001F008C002F0120001EC01F001C066
:100770000AF002C00BF0E70E0A1807E1030E0B188F
:10078000D8A4C5EF03F0C7EF03F0CDEF03F0030EDD
:10079000056EE70E046EF7EF03F0910E0A1806E1FE
:1007A0000B28D8A4D6EF03F0D8EF03F0DEEF03F068
:1007B000FF0E056E910E046EF7EF03F00AC006F00F
:1007C0000BC007F0061E071E064A072A06C008F0DF
:1007D00007C009F01E0E0802F3CF06F0F4CF07F0B1
:1007E0000902F350072606C004F007C005F0120006
:1007F0003C0E0F02F3CF11F0F4CF12F01002F350C1
:10080000122611C013F012C014F0166A000E156EF5
:1008100019EF04F0086A000E076EFF0E0A6E060E4E
:10082000096E33EC05F031EC04F00150152602504E
:1008300016221350155C1650800A116E1450800A4F
:100840001158D8A026EF04F028EF04F00AEF04F0C6
:10085000086A000E076E0A6A000E096E33EC05F096
:100860001200056A000E046E82A039EF04F03BEF1F
:1008700004F054EF04F02E502F10D8A442EF04F0EF
:1008800044EF04F054EF04F082B049EF04F04DEF70
:1008900004F0036A032A4EEF04F0036A03502E6E3D
:1008A0002F6A056A010E046E82B059EF04F05DEF05
:1008B00004F0036A032A5EEF04F0036A03502E6E0D
:1008C0002F6A04C001F005C002F0120005C033F029
:1008D00006C034F003C031F004C032F006BE75EF3C
:1008E00004F073EF04F07DEF04F08988899A336C8B
:1008F000341ED8B0342A7FEF04F08998898A04BE68
:1009000086EF04F084EF04F08EEF04F08A808A9280
:10091000316C321ED8B0322A90EF04F08A908A826D
:10092000BCEC04F01200166A000E156EA8EF04F07D
:1009300011C007F012C008F013C009F014C00AF08B
:1009400033EC05F031EC04F001501526025016226C
:100950000F50155C10501658D8A0B1EF04F0B3EF4B
:1009600004F098EF04F0086A000E076E0A6A000EA1
:10097000096E33EC05F0120031C001F0030E0116D0
:100980000138F00B0C09BD6E31C001F032C002F02D
:10099000D89002320132D890023201320150BE6E3C
:1009A00033C001F0030E01160138F00B0C09BA6ECA
:1009B00033C001F034C002F0D89002320132D89036
:1009C000023201320150BB6E12001DEC06F00A6AC1
:1009D000000E096E00EF05F08A848A868A888A8A6A
:1009E000026A010E016E0CEC05F08A948A968A98D0
:1009F0008A9A026A010E016E0CEC05F0094A0A2A75
:100A00000750095C08500A58D8A009EF05F00BEF11
:100A100005F0ECEF04F01200066A000E056E1EEF02
:100A200005F0020E046E450E036EAA0EE82EFED7E8
:100A3000032EFCD7042EFAD7054A062A0A0E010215
:100A4000F3CF03F0F4CF04F00202F3500426035076
:100A5000055C04500658D8A030EF05F032EF05F0E1
:100A600011EF05F01200040E085CD8A03AEF05F073
:100A70003CEF05F03FEF05F0030E086E07680950E4
:100A8000075C0B6E0A5008580C6E075009240D6E57
:100A900008500A200E6E0DC003F00EC004F00BC00B
:100AA00005F00CC006F066EC04F01200106A010EAE
:100AB0000F6EF8EC03F0026A010E016E0CEC05F00B
:100AC0008A84106AAA0E0F6E010E126E2C0E116E21
:100AD000146A000E136E93EC04F08A942B6A000ED5
:100AE0002A6E1200160EF66E0C0EF76E000EF86EE1
:100AF00000EE35F010EE0CF00900F5CFEEFFE550FA
:100B0000E150FAE100EE28F00D0EEE6AE806FDE194
:100B1000000EF86E0001B2EF01F0070EC26EC45075
:100B2000046E036AC3500324056E000E0420066E93
:100B3000C2B29DEF05F09FEF05F08FEF05F005C005
:100B400001F006C002F01200030EC26EC450046E23
:100B5000036AC3500324056E000E0420066EC2B261
:100B6000B4EF05F0B6EF05F0A6EF05F005C001F013
:100B700006C002F0120026EC06F07C0E11EC06F026
:100B8000110E11EC06F02AEC06F07D0E11EC06F0C9
:100B9000E3EC05F0306E30C08AFF22EC06F0120064
:100BA000C7B4D5EF05F0D7EF05F0D0EF05F0C5CF0E
:100BB00001F01F0E0116D8A4E0EF05F0E2EF05F0FA
:100BC000D0EF05F01200D0EC05F0C586D0EC05F0B2
:100BD000C9CF02F0D0EC05F0C588025012000D0E0E
:100BE000C16ECF0E926E936A390E946E8A6AFAECD9
:100BF00005F01200CB68070ECA6E0C0EBD6E0C0E0F
:100C0000BA6EBE6ABB6A1200280EC66EC56A630E53
:100C1000C86EC76A12000100020003000100020052
:100C20000400026ED0EC05F002C0C9FF1200946807
:100C3000936A8A6A04EC06F0120093949396939850
:100C4000939A1200D0EC05F0C5841200D0EC05F0A8
:0C0C5000C5801200D0EC05F0C582120037
:040FFC0072EF05F09B
:020000040030CA
:04000000FF021E1EBF
:0200060081FF78
:00000001FF
