:04000000FEEF07F018
:1002000000003050FF0A036E6AEF01F0FF0E026E2D
:10021000F40E016EB1EF01F0FF0E026EF60E016EEC
:10022000B1EF01F0FF0E026EF70E016EB1EF01F0BB
:10023000FF0E026EF90E016EB1EF01F0FF0E026EBD
:10024000FB0E016EB1EF01F0FF0E026EFD0E016EAE
:10025000B1EF01F0FF0E026EFE0E016EB1EF01F084
:10026000026A000E016EB1EF01F0026A020E016E29
:10027000B1EF01F0026A030E016EB1EF01F0026A04
:10028000050E016EB1EF01F0026A070E016EB1EFCB
:1002900001F0026A090E016EB1EF01F0026A0A0E66
:1002A000016EB1EF01F0026A0C0E016EB1EF01F0C8
:1002B000FF0E026E910E016EB1EF01F0FE0E026EA6
:1002C000B30E016EB1EF01F0030E026EE70E016E88
:1002D000B1EF01F00350000AD8B45EEF01F0010A5B
:1002E000D8B453EF01F0030AD8B449EF01F0010A82
:1002F000D8B44EEF01F0070AD8B43FEF01F0020A7C
:10030000D8B444EF01F00E0AD8B435EF01F0040A76
:10031000D8B43AEF01F01C0AD8B42AEF01F0080A69
:10032000D8B430EF01F0380AD8B41EEF01F0100A4B
:10033000D8B424EF01F0700AD8B412EF01F0200A0B
:10034000D8B418EF01F0E00AD8B406EF01F0400A83
:10035000D8B40CEF01F03F0AD8B458EF01F064EFC5
:1003600001F01200F3EC05F0CBEC05F0F9EC05F030
:10037000010E426EF40E416E086A030E076EBBEC6E
:1003800004F0276A000E266E20EE35F010EE1AF00B
:100390000B0EDBCFE3FFE806FCE239EF02F02A04A4
:1003A0002B10D8A4D6EF01F0D8EF01F027EF02F020
:1003B00003EF02F02CEC05F02B6A000E2A6E284A9F
:1003C000292A30EF02F0086A000E076E0A6A000E52
:1003D000096E09EC05F0086A030E076EBBEC04F029
:1003E000DFEF01F0106A040E0F6EF3EC03F0DCEFA8
:1003F00001F02B6A010E2A6E284A292A276A010E6B
:10040000266E30EF02F02850020DF3501A0FD96E0D
:10041000DA6ADECF18F0DDCF19F01950000AD8B42F
:1004200014EF02F030EF02F01850010AD8B4DAEFFE
:1004300001F0030AD8B4E3EF01F0010AD8B4F2EFF7
:1004400001F0070AD8B4F9EF01F030EF02F097ECB1
:1004500005F0CFEC02F030EF02F02B6A010E2A6EAD
:1004600026042710D8B437EF02F039EF02F02DEF51
:1004700002F029BE45EF02F0295009E1060E285C82
:10048000D8A045EF02F047EF02F0CFEF01F0FEEF0A
:1004900007F00ABE57EF02F0C10E095C5D0E0A5864
:1004A000D8B055EF02F057EF02F065EF02F00CBE46
:1004B00063EF02F0C10E0B5C5D0E0C58D8A063EF29
:1004C00002F065EF02F06AEF02F00A6A000E096EB0
:1004D000CEEF02F009500B5C0C50800A0F6E0A50F0
:1004E000800A0F58D8B077EF02F079EF02F08CEF66
:1004F00002F0600E0924016EF00E0A20026E046AFA
:10050000320E036E50EC03F001500D5C096E025088
:100510000E580A6ECEEF02F00B50095C0A50800AAA
:100520000F6E0C50800A0F58D8B099EF02F09BEF75
:1005300002F0AEEF02F0600E0B24016EF00E0C2004
:10054000026E046A320E036E50EC03F001500D5C33
:10055000096E02500E580A6ECEEF02F0046A020EC7
:10056000036E09500B24016E0A500C20026E50ECF1
:1005700003F0600E0124106EF00E0220116E10C008
:1005800001F011C002F0046A320E036E50EC03F069
:1005900001500D5C096E02500E580A6E1200B0EC4C
:1005A00003F004C016F005C017F0910E161806E10E
:1005B0001728D8A4DEEF02F0E0EF02F0E9EF02F036
:1005C0002B6A010E2A6E010E426EF40E416E01EF8F
:1005D00003F0E70E161807E1030E1718D8A4F3EF7F
:1005E00002F0F5EF02F0FDEF02F0426A960E416E66
:1005F000176A000E166E01EF03F0010E426EF40E44
:10060000416E69EC05F001C012F002C013F080ECFD
:1006100005F001C014F002C015F013BE1BEF03F08B
:10062000A10E125C0F0E1358D8B019EF03F01BEF98
:1006300003F029EF03F015BE27EF03F0A10E145CC1
:100640000F0E1558D8A027EF03F029EF03F03BEF6A
:1006500003F014C009F015C00AF012C00BF013C06B
:100660000CF041C00DF042C00EF049EC02F009C0A0
:1006700041F00AC042F042BE42EF03F040EF03F007
:1006800045EF03F0426A000E416E41C007F042C0E0
:1006900008F016C009F017C00AF009EC05F01200C6
:1006A000066A04BE58EF03F056EF03F05EEF03F066
:1006B000036C041ED8B0042A010E066E02BE65EF5C
:1006C00003F063EF03F06BEF03F0016C021ED8B090
:1006D000022A010E061A086A000E076E0350041063
:1006E000D8B475EF03F077EF03F09FEF03F0010E3E
:1006F000056E7FEF03F0D89003360436052A04AE6A
:1007000084EF03F086EF03F07BEF03F0D890073619
:1007100008360350015C04500258D8A092EF03F051
:1007200094EF03F099EF03F00350015E0450025A76
:100730000780D89004320332052E86EF03F006506E
:10074000D8B4A5EF03F0A7EF03F0ABEF03F0076C0D
:10075000081ED8B0082A07C001F008C002F0120035
:1007600001EC01F001C00AF002C00BF0E70E0A181C
:1007700007E1030E0B18D8A4C0EF03F0C2EF03F09B
:10078000C8EF03F0030E056EE70E046EF2EF03F000
:10079000910E0A1806E10B28D8A4D1EF03F0D3EF8D
:1007A00003F0D9EF03F0FF0E056E910E046EF2EF29
:1007B00003F00AC006F00BC007F0061E071E064A2B
:1007C000072A06C008F007C009F01E0E0802F3CF82
:1007D00006F0F4CF07F00902F350072606C004F034
:1007E00007C005F012003C0E0F02F3CF11F0F4CF5A
:1007F00012F01002F350122611C013F012C014F0C0
:10080000166A000E156E13EF04F0086A000E076EEC
:100810000A6AFA0E096E09EC05F030EC04F001509A
:100820001526025016221350155C1650800A116EC0
:100830001450800A1158D8A020EF04F022EF04F0E1
:1008400005EF04F0086A000E076E0A6A000E096ED2
:1008500009EC05F0026A050E016EE2EC04F01200EC
:10086000056A000E046E82A038EF04F03AEF04F03F
:1008700053EF04F02E502F10D8A441EF04F043EFB3
:1008800004F053EF04F082B048EF04F04CEF04F0B2
:10089000036A032A4DEF04F0036A03502E6E2F6A99
:1008A000056A010E046E82B058EF04F05CEF04F0AC
:1008B000036A032A5DEF04F0036A03502E6E2F6A69
:1008C00004C001F005C002F0120005C033F006C0FC
:1008D00034F003C031F004C032F006BE74EF04F00F
:1008E00072EF04F07CEF04F08988899A336C341E2F
:1008F000D8B0342A7EEF04F08998898A04BE85EF47
:1009000004F083EF04F08DEF04F08A808A92316C5A
:10091000321ED8B0322A8FEF04F08A908A8292EC8D
:1009200004F0120031C001F0030E01160138F00B83
:100930000C09BD6E31C001F032C002F0D890023215
:100940000132D890023201320150BE6E33C001F044
:10095000030E01160138F00B0C09BA6E33C001F01A
:1009600034C002F0D89002320132D8900232013203
:100970000150BB6E1200F9EC05F00A6A000E096E18
:10098000D6EF04F08A848A868A888A8A026A010EEF
:10099000016EE2EC04F08A948A968A988A9A026A36
:1009A000010E016EE2EC04F0094A0A2A0750095CC4
:1009B00008500A58D8A0DFEF04F0E1EF04F0C2EFCE
:1009C00004F01200066A000E056EF4EF04F0020E49
:1009D000046E450E036EAA0EE82EFED7032EFCD73A
:1009E000042EFAD7054A062A0A0E0102F3CF03F0B5
:1009F000F4CF04F00202F35004260350055C0450C7
:100A00000658D8A006EF05F008EF05F0E7EF04F070
:100A10001200040E085CD8A010EF05F012EF05F0EC
:100A200015EF05F0030E086E07680950075C0B6EA2
:100A30000A5008580C6E075009240D6E08500A2001
:100A40000E6E0DC003F00EC004F00BC005F00CC01C
:100A500006F065EC04F01200086A000E076EFF0E47
:100A60000A6E060E096E09EC05F0026A010E016EAF
:100A7000E2EC04F08A84010E086E2C0E076E0A6AFE
:100A8000000E096E09EC05F0026A020E016EE2EC3E
:100A900004F08A942B6A000E2A6E1200CE0EF66EB7
:100AA0000B0EF76E000EF86E00EE35F010EE0CF047
:100AB0000900F5CFEEFFE550E150FAE100EE28F035
:100AC0000D0EEE6AE806FDE1000EF86E0001B2EFD1
:100AD00001F0070EC26EC450046E036AC3500324B3
:100AE000056E000E0420066EC2B279EF05F07BEFB2
:100AF00005F06BEF05F005C001F006C002F0120032
:100B0000030EC26EC450046E036AC3500324056E04
:100B1000000E0420066EC2B290EF05F092EF05F0D1
:100B200082EF05F005C001F006C002F0120002ECF1
:100B300006F07C0EEDEC05F0110EEDEC05F006EC88
:100B400006F07D0EEDEC05F0BFEC05F0306E30C028
:100B50008AFFFEEC05F01200C7B4B1EF05F0B3EF69
:100B600005F0ACEF05F0C5CF01F01F0E0116D8A4BB
:100B7000BCEF05F0BEEF05F0ACEF05F01200ACECF9
:100B800005F0C586ACEC05F0C9CF02F0ACEC05F081
:100B9000C588025012000D0EC16ECF0E926E936A80
:100BA000390E946E8A6AD6EC05F01200CB68070EF7
:100BB000CA6E0C0EBD6E0C0EBA6EBE6ABB6A120017
:100BC000280EC66EC56A630EC86EC76A12000100A1
:100BD00002000300010002000400026EACEC05F00C
:100BE00002C0C9FF12009468936A8A6AE0EC05F0BB
:100BF0001200939493969398939A1200ACEC05F09C
:100C0000C5841200ACEC05F0C5801200ACEC05F018
:040C1000C582120087
:040FFC004EEF05F0BF
:020000040030CA
:04000000FF021E1EBF
:0200060081FF78
:00000001FF
