:04000000FEEF07F018
:1002000000005BEF01F0FF0E026EF40E016E9AEF3C
:1002100001F0FF0E026EF60E016E9AEF01F0FF0E76
:10022000026EF70E016E9AEF01F0FF0E026EF90EEC
:10023000016E9AEF01F0FF0E026EFB0E016E9AEF57
:1002400001F0FF0E026EFD0E016E9AEF01F0FF0E3F
:10025000026EFE0E016E9AEF01F0026A000E016E50
:100260009AEF01F0026A020E016E9AEF01F0026A43
:10027000030E016E9AEF01F0026A050E016E9AEF0D
:1002800001F0026A070E016E9AEF01F0026A090E90
:10029000016E9AEF01F0026A0A0E016E9AEF01F008
:1002A000026A0C0E016E9AEF01F0030E026EE70E69
:1002B000016E9AEF01F01A50010AD8B450EF01F024
:1002C000030AD8B446EF01F0010AD8B44BEF01F0AD
:1002D000070AD8B43CEF01F0020AD8B441EF01F0AC
:1002E0000E0AD8B432EF01F0040AD8B437EF01F0A7
:1002F0001C0AD8B427EF01F0080AD8B42DEF01F09A
:10030000380AD8B41BEF01F0100AD8B421EF01F07D
:10031000700AD8B40FEF01F0200AD8B415EF01F03D
:10032000E00AD8B403EF01F0400AD8B409EF01F0B5
:1003300055EF01F0120001EC01F001C00EF002C017
:100340000FF0E70E0E1807E1030E0F18D8A4ABEF5D
:1003500001F0ADEF01F0B2EF01F0096A010E086E95
:1003600003EF02F00EC00AF00FC00BF00A1E0B1EC6
:100370000A4A0B2A0AC00CF00BC00DF0140E0C0236
:10038000F3CF0AF0F4CF0BF00D02F3500B260AC0A6
:1003900010F00BC011F008501024126E09501120FB
:1003A000136E1050085C146E11500958156E1450DD
:1003B0001510D8A4DEEF01F0E0EF01F0E2EF01F05C
:1003C000ADEF01F012C003F013C004F014C005F04B
:1003D00015C006F0A4EC02F0640E1202F3CF0AF08E
:1003E000F4CF0BF01302F3500B260AC001F00BC040
:1003F00002F014C003F015C004F004EC02F001C0D8
:1004000008F002C009F01200066A000E056E0350E3
:100410000410D8B40EEF02F010EF02F038EF02F043
:10042000010E076E18EF02F0D89003360436072A43
:1004300004AE1DEF02F01FEF02F014EF02F0D890AF
:10044000053606360350015C04500258D8A02BEF45
:1004500002F02DEF02F032EF02F00350015E045083
:10046000025A0580D89004320332072E1FEF02F0A3
:1004700005C001F006C002F012001DC001F0030E1D
:1004800001160138F00B0C09BD6E1DC001F01EC035
:1004900002F0D89002320132D8900232013201507B
:1004A000BE6E1BC001F0030E01160138F00B0C09E3
:1004B000BA6E1BC001F01CC002F0D89002320132AB
:1004C000D890023201320150BB6E1200F2EC02F001
:1004D000BFEC02F0F8EC02F0010E196E2C0E186E53
:1004E0007CEC02F018C016F019C017F0DEEC02F038
:1004F00070EF02F0FEEF07F001EC03F07C0EECEC85
:1005000002F0110EECEC02F005EC03F07D0EECECC9
:1005100002F0B3EC02F01A6E1AC08AFFFDEC02F092
:100520001200C7B496EF02F098EF02F091EF02F0DC
:10053000C5CF01F01F0E0116D8A4A1EF02F0A3EF62
:1005400002F091EF02F0120005C01DF006C01EF08F
:1005500003C01BF004C01CF08998898A8A908A82A3
:100560003DEC02F0120091EC02F0C58691EC02F035
:10057000C9CF02F091EC02F0C588025012000D0EB6
:10058000C16ECF0E926E936A390E946E8A6AD4EC65
:1005900002F012001E6A1D6A1C6A1B6A1A6A000EAB
:1005A000F86E000166EF02F0CB68070ECA6E0C0E03
:1005B000BD6E0C0EBA6EBE6ABB6A120016C008F0A1
:1005C00017C009F09BEC01F01200280EC66EC56A38
:1005D000630EC86EC76A1200026E91EC02F002C090
:1005E000C9FF12009468936A8A6AE5EC02F012006F
:1005F000939493969398939A120091EC02F0C58489
:10060000120091EC02F0C580120091EC02F0C5825C
:020610001200D6
:040FFC00CAEF02F046
:020000040030CA
:04000000FF021E1EBF
:0200060081FF78
:00000001FF
