:04000000FEEF07F018
:1002000000001D50FF0A036E64EF01F0FF0E026E46
:10021000F40E016EA7EF01F0FF0E026EF60E016EF6
:10022000A7EF01F0FF0E026EF70E016EA7EF01F0CF
:10023000FF0E026EF90E016EA7EF01F0FF0E026EC7
:10024000FB0E016EA7EF01F0FF0E026EFD0E016EB8
:10025000A7EF01F0FF0E026EFE0E016EA7EF01F098
:10026000026A000E016EA7EF01F0026A020E016E33
:10027000A7EF01F0026A030E016EA7EF01F0026A18
:10028000050E016EA7EF01F0026A070E016EA7EFDF
:1002900001F0026A090E016EA7EF01F0026A0A0E70
:1002A000016EA7EF01F0026A0C0E016EA7EF01F0DC
:1002B000FF0E026E910E016EA7EF01F0030E026EAB
:1002C000E70E016EA7EF01F00350010AD8B453EF17
:1002D00001F0030AD8B449EF01F0010AD8B44EEF97
:1002E00001F0070AD8B43FEF01F0020AD8B444EF96
:1002F00001F00E0AD8B435EF01F0040AD8B43AEF91
:1003000001F01C0AD8B42AEF01F0080AD8B430EF83
:1003100001F0380AD8B41EEF01F0100AD8B424EF67
:1003200001F0700AD8B412EF01F0200AD8B418EF27
:1003300001F0E00AD8B406EF01F0400AD8B40CEF9F
:1003400001F03F0AD8B458EF01F05EEF01F012005F
:1003500001EC01F001C00AF002C00BF0E70E0A1830
:1003600007E1030E0B18D8A4B8EF01F0BAEF01F0C3
:10037000C0EF01F0030E056EE70E046EEAEF01F028
:10038000910E0A1806E10B28D8A4C9EF01F0CBEFB3
:1003900001F0D1EF01F0FF0E056E910E046EEAEF51
:1003A00001F00AC006F00BC007F0061E071E064A41
:1003B000072A06C008F007C009F01E0E0802F3CF96
:1003C00006F0F4CF07F00902F350072606C004F048
:1003D00007C005F01200A8EC01F004C017F005C03A
:1003E00018F0910E171806E11828D8A4FAEF01F0BA
:1003F000FCEF01F006EF02F0106A020E0F6E29EC1E
:1004000002F0236A000E226E1EEF02F0E70E1718AC
:1004100007E1030E1818D8A410EF02F012EF02F053
:100420001AEF02F0236A960E226E186A000E176EFB
:100430001EEF02F0010E236E2C0E226E22C007F07A
:1004400023C008F017C009F018C00AF018EC03F038
:100450001200820E0F02F3CF11F0F4CF12F010024F
:10046000F350122611C013F012C014F0166A000ED9
:10047000156E49EF02F0086A000E076E0A6AFA0E5E
:10048000096E18EC03F066EC02F0015015260250DC
:1004900016221350155C1650800A116E1450800AF3
:1004A0001158D8A056EF02F058EF02F03BEF02F0DF
:1004B000086A000E076E0A6A000E096E18EC03F057
:1004C000026A050E016EF1EC02F01200056A000EE0
:1004D000046E82A06EEF02F070EF02F089EF02F07E
:1004E0001B501C10D8A477EF02F079EF02F089EFCF
:1004F00002F082B07EEF02F082EF02F0036A032A7C
:1005000083EF02F0036A03501B6E1C6A056A010E3A
:10051000046E82B08EEF02F092EF02F0036A032ABB
:1005200093EF02F0036A03501B6E1C6A04C001F0D3
:1005300005C002F0120005C020F006C021F003C083
:100540001EF004C01FF006BEAAEF02F0A8EF02F0F2
:10055000B2EF02F08988899A206C211ED8B0212A36
:10056000B4EF02F08998898A04BEBBEF02F0B9EFBC
:1005700002F0C3EF02F08A808A921E6C1F1ED8B070
:100580001F2AC5EF02F08A908A82C8EC02F012009E
:100590001EC001F0030E01160138F00B0C09BD6EF0
:1005A0001EC001F01FC002F0D89002320132D89074
:1005B000023201320150BE6E20C001F0030E01165E
:1005C0000138F00B0C09BA6E20C001F021C002F016
:1005D000D89002320132D890023201320150BB6E03
:1005E0001200066A000E056E03EF03F0020E046EA1
:1005F000450E036EAA0EE82EFED7032EFCD7042E5E
:10060000FAD7054A062A0A0E0102F3CF03F0F4CF07
:1006100004F00202F35004260350055C045006580F
:10062000D8A015EF03F017EF03F0F6EF02F0120079
:10063000040E085CD8A01FEF03F021EF03F024EFB5
:1006400003F0030E086E07680950075C0B6E0A5032
:1006500008580C6E075009240D6E08500A200E6EC3
:100660000DC003F00EC004F00BC005F00CC006F086
:100670009BEC02F01200BDEC03F07C0EA8EC03F042
:10068000110EA8EC03F0C1EC03F07D0EA8EC03F012
:1006900075EC03F01D6E1DC08AFFB9EC03F012006B
:1006A000C7B455EF03F057EF03F050EF03F0C5CF99
:1006B00001F01F0E0116D8A460EF03F062EF03F003
:1006C00050EF03F01200AEEC03F08CEC03F0B4EC4E
:1006D00003F0010E236E2C0E226E3BEC03F0EBECCC
:1006E00001F06DEF03F0FEEF07F050EC03F0C5866C
:1006F00050EC03F0C9CF02F050EC03F0C588025073
:10070000120000EE19F0090EEE6AE806FDE1000E97
:10071000F86E000163EF03F00D0EC16ECF0E926E06
:10072000936A390E946E8A6A97EC03F01200CB68D4
:10073000070ECA6E0C0EBD6E0C0EBA6EBE6ABB6A98
:100740001200280EC66EC56A630EC86EC76A120014
:10075000026E50EC03F002C0C9FF12009468936A65
:100760008A6AA1EC03F01200939493969398939A5B
:10077000120050EC03F0C584120050EC03F0C58069
:0A078000120050EC03F0C5821200D5
:040FFC0081EF03F08E
:020000040030CA
:04000000FF021E1EBF
:0200060081FF78
:00000001FF
