:04000000FEEF07F018
:1002000000006DEC01F009C007F0D8900732D890DB
:100210000732010E0716074607468A500718FB0BE0
:1002200007188A6E09C007F0D8900732D8900732B5
:10023000D8900732010E07160746074607468A5030
:100240000718F70B07188A6E09C007F0073A0F0E58
:100250000716010E0716073A8A500718EF0B071802
:100260008A6E09C007F0050E086ED8900732082E76
:1002700035EF01F0010E0716073A07468A500718B6
:10028000DF0B07188A6E120003C005F0030E051677
:100290000538F00B0C09BD6E03C005F004C006F074
:1002A000D89006320532D890063205320550BE6E1F
:1002B00001C005F0030E05160538F00B0C09BA6EE7
:1002C00001C005F002C006F0D89006320532D89081
:1002D000063205320550BB6E1200F6EC01F07C0EC2
:1002E000DDEC01F0110EDDEC01F0FAEC01F07D0E19
:1002F000DDEC01F0B5EC01F0096E09C08AFFF2EC0B
:1003000001F01200C7B487EF01F089EF01F082EF2E
:1003100001F0C5CF05F01F0E0516D8A492EF01F02D
:1003200094EF01F082EF01F01200E3EC01F0C1EC78
:1003300001F0E9EC01F0086AC80E076EA6EC01F0C6
:1003400001EC01F09BEF01F0FEEF07F007C003F0B6
:1003500008C004F007C001F008C002F08998898A3B
:100360008A908A8244EC01F0120082EC01F0C5868A
:1003700082EC01F0C9CF06F082EC01F0C58806508E
:1003800012000D0EC16ECF0E926E936A390E946EEE
:100390008A6ACCEC01F01200CB68070ECA6E0C0E14
:1003A000BD6E0C0EBA6EBE6ABB6A1200280EC66E17
:1003B000C56A630EC86EC76A1200066E82EC01F051
:1003C00006C0C9FF12009468936A8A6AD6EC01F0ED
:1003D0001200939493969398939A1200096A0001DD
:1003E00095EF01F082EC01F0C584120082EC01F07F
:0C03F000C580120082EC01F0C5821200F2
:040FFC00EEEF01F023
:020000040030CA
:04000000FF021E1EBF
:0200060081FF78
:00000001FF
